:020000040800F2
:10000000284A0020E9020008B3210008CB1E00089E
:10001000B12100088705000807280008000000003B
:10002000000000000000000000000000290200089D
:100030009F0900080000000085020008FD2100085B
:100040000303000803030008030300080303000878
:100050000303000803030008030300080303000868
:100060000303000803030008030300080303000858
:100070008D050008030300080303000803030008BC
:100080000303000803030008030300080303000838
:100090000303000803030008030300080303000828
:1000A0000303000803030008030300080303000818
:1000B000D522000803030008030300080303000817
:1000C00003030008030300080303000803030008F8
:1000D00003030008E5260008030300085D27000865
:1000E00003030008030300080303000803030008D8
:1000F00003030008030300080303000803030008C8
:1001000003030008030300080303000803030008B7
:1001100003030008030300080303000803030008A7
:100120000303000899050008A5050008030300085B
:100130000303000803030008030300080303000887
:100140000303000803030008030300080303000877
:1001500003030008B1050008BD050008B527000825
:100160000303000803030008030300080303000857
:100170000303000803030008030300080000000055
:10018000030300080303000800F002F800F03CF845
:100190000AA090E8000C82448344AAF10107DA45E2
:1001A00001D100F031F8AFF2090EBAE80F0013F0F8
:1001B000010F18BFFB1A43F001031847AC330000CE
:1001C000CC330000103A24BF78C878C1FAD852075F
:1001D00024BF30C830C144BF04680C6070470000C1
:1001E0000023002400250026103A28BF78C1FBD840
:1001F000520728BF30C148BF0B6070471FB503F0DE
:100200004DF91FBD10B510BD00F088F91146FFF77C
:10021000F5FF02F02DFB00F0A6F903B4FFF7F2FFA3
:1002200003BC00F0A9F900002C4B19680868B0E87D
:10023000F04F80F30988BFF36F8F4FF0000080F319
:10024000118870470000000008480068006880F3CB
:1002500008884FF0000080F3148862B661B6BFF3DF
:100260004F8FBFF36F8F00DF00BF00BF08ED00E0CE
:10027000DFF80C00016841F470010160704700BFB5
:1002800088ED00E0EFF30980BFF36F8F134B1A681E
:100290001EF0100F08BF20ED108A20E9F04F10600B
:1002A00009B44FF0500080F31188BFF34F8FBFF3B4
:1002B0006F8F02F01BFF4FF0000080F3118809BC24
:1002C00019680868B0E8F04F1EF0100F08BFB0ECD6
:1002D000108A80F30988BFF36F8F70470C000020ED
:1002E000EFF3058070470000094880470948004740
:1002F000FEE7FEE7FEE7FEE7FEE7FEE7FEE7FEE7D6
:10030000FEE7FEE704480549054A064B7047000032
:10031000C52200088901000828440020284A00203E
:10032000284600202846002053EA020C00F069808D
:100330002DE9F04B4FF00006002B1FBFB3FA83F5F9
:1003400003FA05F424FA05F65E4012BF1643B2FA2A
:1003500082F502FA05F4C5F120051EBF22FA05FC5C
:1003600044EA0C04203556EA044C4FEA144418BF02
:10037000641C4FF000084FF00009904271EB030C31
:1003800039D3002919BFB1FA81F701FA07F6B0FA9B
:1003900080F700FA07F6C7F120071EBF20FA07FC16
:1003A00046EA0C062037B6FBF4FCA7EB0507103F26
:1003B00007F01F0BCBF120060CFA0BFB2CFA06F60C
:1003C00044BFB3460026202FA4BF5E464FF0000B6B
:1003D0005BEA060C08BF4FF0010B19EB0B09ABFBF6
:1003E000027C48EB0608C01B06FB02CC0BFB03CCCF
:1003F00071EB0C01C1E70B46024641464846BDE899
:10040000F08B13B54FF000004FF00001AFF3008008
:10041000BDE81C40704710B5203AC0F00B80B1E831
:100420001850203AA0E81850B1E81850A0E8185029
:10043000BFF4F5AF5FEA027C24BFB1E81850A0E832
:10044000185044BF18C918C0BDE810405FEA827C4C
:1004500024BF51F8043B40F8043B08BF7047D20763
:1004600028BF31F8023B48BF11F8012B28BF20F804
:10047000023B48BF00F8012B70474FF000020429EF
:10048000C0F0128010F0030C00F01B80CCF1040CC3
:10049000BCF1020F18BF00F8012BA8BF20F8022BF7
:1004A000A1EB0C0100F00DB85FEAC17C24BF00F89D
:1004B000012B00F8012B48BF00F8012B70474FF0CB
:1004C000000200B5134694469646203922BFA0E8A4
:1004D0000C50A0E80C50B1F12001BFF4F7AF0907B0
:1004E00028BFA0E80C5048BF0CC05DF804EB8900A1
:1004F00028BF40F8042B08BF704748BF20F8022BE4
:1005000011F0804F18BF00F8012B704770477047FB
:100510007047000000487047C44300207546FFF74D
:10052000F9FFAE4605006946534620F007008546B0
:1005300018B020B5FFF7E6FEBDE820404FF00006FA
:100540004FF000074FF000084FF0000B21F00701BB
:10055000AC46ACE8C009ACE8C009ACE8C009ACE8FE
:10056000C0098D46704710B50446AFF300802046A1
:10057000BDE81040FFF751BE01491820ABBEFEE7B1
:10058000260002007047FEE770470000014800F0B7
:1005900063BA000064410020014800F05DBA000029
:1005A000C4410020014800F057BA0000A4400020D8
:1005B000014800F051BA000024420020014800F038
:1005C0004BBA0000044100202DE9F04F099E0024A1
:1005D0008568802D18D0A24DC563A24D456490F862
:1005E0003450012D15D0012580F8345090F8355045
:1005F000012D10D0002180F834100224002180F851
:1006000034102046BDE8F08F4FF480714165012021
:10061000F8E70220F6E7022580F835500025456509
:1006200005682F6847F480272F6005682B610368F1
:100630005E608368402B25D0036899600168CA60BA
:100640008A4D8A4E884FDFF820E2EA14DFF81CC298
:10065000DFF81482DFF81492DFF80CA20168783614
:10066000303793020CF1300CA8F1180809F1900909
:100670000AF1480A4FF0006B71453BD9A94206D1F7
:10068000202233E003689A600268D160D8E7764D93
:10069000483DA94201D1202228E0744D6035A9428D
:1006A00001D1202222E0704D1835A94201D120222B
:1006B0001CE06E4D1835A94218D06B4D303DA94253
:1006C00014D0B14212D0B94210D0614501D11A46BE
:1006D0000CE0414501D11A4608E0494501D11A46CE
:1006E00004E0514501D11A4600E05A465E494C39B2
:1006F0000A60AFE0DFF874E10EF1A80E714536D95B
:10070000A94201D120222EE0574D483DA94201D1F6
:10071000202228E0554D6035A94201D1202222E057
:10072000514D1835A94201D120221CE04F4D1835FA
:10073000A94218D04C4D303DA94214D0B14212D03C
:10074000B94210D0614501D11A460CE0414501D1B2
:100750001A4608E0494501D11A4604E0514501D145
:100760001A4600E05A46404950390A6072E0DFF804
:10077000FCE00EF1480E714536D9A94201D1202284
:100780002EE0394D483DA94201D1202228E0374DC5
:100790006035A94201D1202222E0334D1835A9420B
:1007A00001D120221CE0314D1835A94218D02E4D20
:1007B000303DA94214D0B14212D0B94210D06145A7
:1007C00001D11A460CE0414501D11A4608E04945DD
:1007D00001D11A4604E0514501D11A4600E05A46BB
:1007E00022491039CA6035E0A94201D120222EE009
:1007F0001D4D483DA94201D1202228E01B4D603506
:10080000A94201D1202222E0174D1835A94201D179
:1008100020221CE0154D1835A94218D0124D303D4C
:10082000A94214D0B14212D0B94210D0614501D1D1
:100830001A460CE0414501D11A4608E0494501D16C
:100840001A4604E0514501D11A4600E05A460749CC
:1008500010398A6001680A6842F001020A60CDE638
:10086000292800084D280008586402401060024002
:100870000168CAB2103A1823B2FBF3F2064B9B5C34
:10088000C3656FF30901032A02D9091D816500E0E0
:100890008165806D70470000A634000810B50146E0
:1008A00000208A6A8B694FF0C074002B0ED0B3F51C
:1008B000005F1AD062B3012A2AD0022A28D0032A64
:1008C00003D1C96AC90100D5012010BD1AB1012A9E
:1008D00006D0022AF9D1C96AC901F6D5012010BD96
:1008E000C96AA142FBD1012010BD52B1012A0AD030
:1008F000022A06D0032AF7D1C96AA142F4D1012005
:1009000010BD012010BDC96AC901FBD5012010BD71
:10091000012010BD70B5002490F83450012D0CD08A
:10092000012580F8345090F835600025012E06D05E
:1009300080F834500224204670BD022070BD02268B
:1009400080F83560456505682E6826F480262E609F
:1009500005686B608368402B09D003689960016863
:10096000CA600068016841F001010160E3E70368C3
:100970009A600268D160F4E710B501F0BFFE01F0A3
:10098000F9FEBDE8104001F021BF01680A68D206F7
:1009900004D5C968C90601D502F00ABA7047704784
:1009A00072B6FEE72DE9F0410446A76D00F09EFA0D
:1009B000054694F835000026022806D080206065A0
:1009C00084F834600120BDE8F0812068016821F0DE
:1009D000160101602068416921F080014161206CAD
:1009E00008B9A06C20B12068016821F008010160FD
:1009F0002068016821F0010101600BE000F076FA47
:100A0000401B052806D92020343420620320607062
:100A10002670D8E720680068C007EFD134343F2043
:100A200094F828108840B86001206070267000207B
:100A3000C9E790F83510022903D0802141650120D3
:100A40007047052180F835100068016821F0010128
:100A500001600020704700002DE9F84304464FF084
:100A60000009CDF800906F484FF416510068B0FBB4
:100A7000F1F7A56D2E6894F85C00082202FA00F1E7
:100A8000314210D02068016849070CD5016821F077
:100A90000401016094F85C0002FA00F1A960606D45
:100AA00040F00100606594F85C104FF0010808FA0E
:100AB00001F0304208D021684969090604D5A860D0
:100AC000606D40F00200606594F85C10042088407E
:100AD000304208D021680968890704D5A860606D94
:100AE00040F00400606594F85C10102088403042AB
:100AF00020D02168096809071CD5A8602068016812
:100B000049030CD50068000304D4216C91B1204640
:100B100088470FE0A16C69B1204688470AE0016868
:100B2000C90503D4016821F008010160216C09B1F5
:100B30002046884794F85C102020884030424CD0F2
:100B400021680968C90648D5A86094F835000528C9
:100B50000BD020680168490330D50068000328D411
:100B6000616C51B32046884737E02068016821F066
:100B7000160101602068416921F080014161206C0B
:100B800008B9A06C20B12068016821F0080101605B
:100B900094F85C103F208840A86084F8358084F881
:100BA0003490216D00293BD001B02046BDE8F043D0
:100BB0000847E16B09B1204688470EE00168C90586
:100BC00007D4016821F01001016084F8358084F8B1
:100BD0003490E16B09B120468847606D00281FD032
:100BE000606DC00714D0052084F8350020680168C6
:100BF00021F0010101600098401C0090B84203D828
:100C000020680068C007F6D184F8358084F83490F5
:100C1000E16C002904D001B02046BDE8F04308474C
:100C2000BDE8F883840000202DE9F041044600F07F
:100C30005DF905465CB1022084F83500002684F891
:100C400034602068016821F0010101600DE001209D
:100C5000BDE8F08100F04AF9401B052805D92020A5
:100C60006065032084F83500F2E720680068C0075B
:100C7000F0D121680A6820480240D4E901031843F2
:100C8000D4E903352B43184363691843A369184318
:100C9000E3691843236A18431043626A042A03D1A4
:100CA000D4E90B231A43104308602068406920F000
:100CB0000700656A29460543012704290DD1A06A6A
:100CC0000543E06A48B12046FFF7E8FD28B140201F
:100CD000606584F835700120BAE7206845612046D8
:100CE000FFF7C6FD94F85C203F2191408160666566
:100CF00084F835700020ABE73F8010F02DE9F84F05
:100D00000022DFF89C914FF0010803274FF00F0CF1
:100D100009F1040AA9F1040B08FA02F50B682B404B
:100D2000AB426ED10C7904F00304012C01D0022CEB
:100D300015D18668540007FA04FE26EA0E06D1F89B
:100D40000CE00EFA04FE4EEA060EC0F808E0446815
:100D5000AC430D79C5F300159540254345600C79EA
:100D6000E443A40708D0C568540007FA04F6B54365
:100D70008E68A6402E43C6600C7904F00304022C52
:100D800011D1D40800EB8406356A5407E40E0CFA3E
:100D900004FE25EA0E05D1F810E00EFA04FE4EEA34
:100DA000050EC6F820E00568540007FA04F6B543BE
:100DB0000E7906F00306A6402E4306604C6814F434
:100DC000403F67D0374C256845F48045256024684E
:100DD00004F480440094344C22F003052E19D6F814
:100DE000085894074FEA147E0CFA0EF4A5432F4CD2
:100DF000A04201D1002424E02D4CA04202D10124C4
:100E00001FE047E02B4CA04201D1022419E02A4CFC
:100E1000A04201D1032414E0284CA04201D10424B3
:100E20000FE0274CA04201D105240AE0254CA04246
:100E300001D1062405E0244CA04201D1072400E0A2
:100E4000082404FA0EF42C43C6F80848D9F80040E8
:100E50009C434D68ED0200D51C43C9F80040DAF808
:100E600000409C434D68AD0200D51C43CAF80040C9
:100E7000DBF800409C434D68AD0300D51C43CBF824
:100E80000040074D083D2C689C434E68F60300D592
:100E90001C432C60521C102AFFF43EAFBDE8F88FB3
:100EA000083C01404438024000300140000002404C
:100EB0000004024000080240000C02400010024002
:100EC0000014024000180240001C0240426921EA5E
:100ED00002030A4043EA024181617047002A01D0BF
:100EE0008161704709048161704700000148806892
:100EF0007047000000000020024881680278114419
:100F0000816070470000002010B50B48016841F473
:100F100000710160016841F480610160016841F481
:100F200080710160032000F09FF80F2000F006F8A8
:100F300000F050F8002010BD003C024030B587B0F2
:100F4000054600241F48016841F001010160006866
:100F500000F00100009001A902A800F03DF90598F9
:100F6000B0B100F05DF940001749B0FBF1F1491E46
:100F700016484FF08042026040F2E732C2604160A2
:100F800004618460846100F083FB04461CB115E0B9
:100F900000F046F9E8E70D4800F0A0FB04466CB904
:100FA0001C2000F033F8102D07D2002229461C2007
:100FB00000F03AF80648056000E0012407B020463A
:100FC00030BD00004038024040420F008442002003
:100FD0000400002082B00C48016841F480410160A7
:100FE000006800F4804001900748001F016841F04C
:100FF00080510160006800F08050019000220F21B4
:10100000901E02B000F010B844380240002809DBFE
:1010100000F01F02012191404009800000F1E02012
:10102000C0F8001170470000F0B40D460D4B1B686E
:10103000C3F30223C3F10704042C00D90424191DAF
:10104000072901D2002300E0DB1E012606FA04F185
:10105000491E294099409E40761E16403143F0BCFF
:1010600001F0D2BB0CED00E000F00701054A10686A
:101070004FF6FF03184040EA01200349084310607F
:10108000704700000CED00E00000FA052DE9F04784
:1010900004460D46002C13D0DFF82891D9F8000043
:1010A000EFB200F00700A8420CD289F80070D9F81E
:1010B000000000F00700A84204D00120BDE8F0873E
:1010C0000120FBE72068404E810712D5400703D579
:1010D000306840F4E05030602078000703D5306875
:1010E00040F4604030603068A16820F0F0000843B0
:1010F00030602078C00731D0334960680839012852
:1011000008D002280BD0032809D0096889070BD41E
:101110000120D3E70968890306D40120CEE70968D6
:10112000890101D40120C9E7316821F0030101439D
:101130003160FFF7DBFE804641F2883A07E0FFF7B7
:10114000D5FEA0EB0800504501D90320B6E7306872
:10115000616800F00C00B0EB810FF0D1D9F800000D
:1011600000F00700A84209D989F80070D9F80000FA
:1011700000F00700A84201D001209FE72078400737
:1011800005D53068E16820F4E050084330602078ED
:10119000000706D53068216920F4604040EAC100AC
:1011A000306000F05DF83168084AC1F30311515C0A
:1011B000C8400749086007480068FFF7BFFE0020E5
:1011C0007CE70000003C024008380240203500085F
:1011D00084000020040000200F2202600B4A1368E4
:1011E00003F003034360136803F0F00383601368A4
:1011F00003F4E053C360126802F46042D208026153
:101200000348006800F00700086070470838024093
:10121000003C024001480068704700008400002044
:1012200000B5FFF7F7FF04490968044AC1F38221BA
:10123000515CC84000BD000008380240303500084D
:1012400000B5FFF7E7FF04490968044AC1F34231DA
:10125000515CC84000BD000008380240303500082D
:1012600010B51748006810F00C01164816D0164B40
:10127000042912D0082911D1114C241F216801F032
:101280003F02216849020AD52068C0F38810A0FBFC
:1012900003010023FFF748F809E0184610BD216854
:1012A0000023C1F38811A1FB0001FFF73DF821687D
:1012B000C1F30141491C4900B0FBF1F010BD000031
:1012C000083802400024F400001BB7002DE9F84F55
:1012D0000446002C13D02078DFF8A083C007A8F1C3
:1012E000040556D008F104000168C1F38101012909
:1012F0000CD00068C0F38100022803D00DE001206B
:10130000BDE8F88FD8F80000400206D528688003B1
:101310003FD5606870BB0120F2E76068B0F5803FA0
:1013200010D0B0F5A02F12D0286820F480302860AB
:10133000286820F4802028606068E0B1FFF7D6FDBF
:10134000064614E0286840F480302860F4E72868F6
:1013500040F480202860286840F480302860EBE763
:10136000FFF7C4FD801B642801D90320C8E7286863
:101370008003F5D50DE0FFF7B9FD064606E0FFF75F
:10138000B5FD801B642801D90320B9E728688003D4
:10139000F5D42078BA4F80074FF0000948D5B748F8
:1013A000001D016811F00C0F08D00068C0F3810027
:1013B000022813D1D8F8000040020FD42868800713
:1013C00004D5E068012801D0012099E72868216947
:1013D00020F0F80040EAC100286029E0E068B8B1D8
:1013E00001203860FFF782FD064606E0FFF77EFD2C
:1013F000801B022801D9032082E728688007F5D5E1
:101400002868216920F0F80040EAC10028600FE058
:10141000C7F80090FFF76AFD064606E0FFF766FD95
:10142000801B022801D903206AE728688007F5D4C9
:101430002078000729D5DFF844A2924861690AF1B3
:10144000700A89B101210160FFF750FD064606E0F0
:10145000FFF74CFD801B022801D9032050E7DAF882
:1014600000008007F4D510E0C0F80090FFF73EFDC3
:10147000064606E0FFF73AFD801B022801D903204B
:101480003EE7DAF800008007F4D42078400778D5EA
:101490004FF0000A79483C300068C0000BD4774810
:1014A0003C30016841F080510160006800F08050DC
:1014B00000904FF0010ADFF8D0B1DBF80000C00562
:1014C00014D4DBF8000040F48070CBF80000FFF784
:1014D0000DFD064606E0FFF709FD801B022801D935
:1014E00003200DE7DBF80000C005F4D5634EA068CB
:1014F0006C3601280FD0052812D0306820F001008A
:101500003060306820F004003060A068F8B1FFF768
:10151000EDFC834617E0306840F001003060F4E7EE
:10152000306840F004003060306840F00100306006
:10153000EBE7FFF7DBFCA0EB0B0141F288308142C7
:1015400001D90320DCE630688007F2D510E0FFF710
:10155000CDFC834609E0FFF7C9FCA0EB0B0141F28B
:101560008830814201D90320CAE630688007F2D46E
:10157000BAF1010F05D141483C30016821F080519A
:101580000160A069C0B33D49091D09684FF0FF36ED
:10159000C1F38101022946D0022805D0C7F8609026
:1015A000FFF7A4FC04463AE0C7F86090FFF79EFC02
:1015B000814607E0FFF79AFCA0EB0900022801D959
:1015C00003209DE628688001F4D4D4E9070108438C
:1015D000616AA26A890106EB520241EA02410843AC
:1015E00094F82C1040EA0160C8F800000120386629
:1015F000FFF77CFC044607E03DE0FFF777FC001BAB
:10160000022801D903207BE628688001F5D532E065
:10161000FFF76CFC001B022801D9032070E6286844
:101620008001F5D427E0012823D0D8F80000E26932
:1016300000F4800191421AD1226A00F03F019142E8
:1016400015D147F6C071626A0140B1EB821F0ED11D
:10165000A26A00F4403106EB5202B1EB024F06D110
:1016600094F82C1000F07060B0EB016F03D00120F3
:1016700046E6012044E6002042E60000043802402D
:1016800000004742800E474200700040704770479C
:1016900010B50446002C03D094F83D0010B107E0CB
:1016A000012010BD002084F83C00204600F015F811
:1016B000022084F83D00211D206800F011FE012069
:1016C0003D3460726070A070E07020716071A07134
:1016D000E07120722070002010BD704790F83D101E
:1016E000012901D001207047022180F83D100168D6
:1016F000CA6842F00102CA6000681449884214D0E6
:10170000B0F1804F11D0124988420ED01149884261
:101710000BD01149884208D01049884205D01049A1
:10172000884202D00F49884209D1816801F007013F
:10173000062908D0016841F00101016003E0016859
:1017400041F00101016000207047000000000140ED
:101750000004004000080040000C0040000401406C
:10176000004001400018004070472DE9F041044658
:101770002068C56806694FF00007B10714D5A907AE
:1017800012D5F91E01610120207720688069800749
:1017900003D02046FFF7E8FF05E0204600F081F87F
:1017A000204600F07FF82777700717D5680715D512
:1017B00021686FF0040008610220207720688069AA
:1017C00010F4407F03D02046FFF7CEFF05E020460F
:1017D00000F067F8204600F065F82777300716D547
:1017E000280714D521686FF00800086104202077CD
:1017F0002068C069800703D02046FFF7B5FF05E0E9
:10180000204600F04EF8204600F04CF82777F0060E
:1018100017D5E80615D521686FF01000086108207B
:1018200020772068C06910F4407F03D02046FFF77E
:101830009BFF05E0204600F034F8204600F032F827
:101840002777F00708D0E80706D021686FF001007D
:101850000861204600F027F8300608D5280606D58E
:1018600021686FF0800008612046FFF70FFF7006C7
:1018700008D5680606D521686FF04000086120464B
:1018800000F018F8B0060AD5A80608D521686FF050
:10189000200008612046BDE8F041FFF7F8BEBDE832
:1018A000F081704770470068B0F1804F01D1FFF7B9
:1018B00023BB70477047704770470000F8B5044677
:1018C00022681068D168536900F00F06002E08D115
:1018D000850606D58D0604D52046BDE8F84000F003
:1018E000A9BD0025002E66D003F0010601F4907713
:1018F000374360D0C20705D0CA0503D5626C42F0F9
:1019000001026264420705D5DA0703D0626C42F037
:1019100002026264820705D5DA0703D0626C42F0E6
:1019200004026264020707D501F02002324303D0AB
:10193000626C42F008026264626C002A31D0800658
:1019400004D5880602D5204600F074FD2068406961
:10195000C0F38010616C090700D438B3204600F052
:1019600035FD2068406940061CD52068143050E8D9
:10197000001F21F0400140E80012002AF5D1E06B81
:1019800060B159490165E06BFFF753F8002808D0B2
:10199000E06B016D01B0BDE8F04008472046FFF75D
:1019A0008BFFF8BD2046FFF787FFF8BD2046FFF705
:1019B00083FF6564F8BD236B012B7DD1C3067BD506
:1019C000CB067FD510685068009050694FF0200317
:1019D00040064FF0020644D5E16B0868406880B2CB
:1019E0000028E7D0A28D8242E4D9E085C869B0F52D
:1019F000807F2DD020680C3050E8001F21F48071CA
:101A000040E80012002AF5D12068143050E8001F89
:101A100021F0010140E80012002AF5D120681430BD
:101A200050E8001F21F0400140E80012002AF5D1E3
:101A300084F84230256320680C3050E8001F21F004
:101A4000100140E80012002AF5D1E06BFEF7AAFF72
:101A50006663A08DE18D401A81B22046FFF72BFF0F
:101A6000F8BDA08DE18D401A81B2E08D0028F7D03D
:101A70000029F5D020680C3050E8002F22F4907235
:101A800040E80027002FF5D12068143050E8002FDF
:101A900022F0010240E80027002FF5D184F84230FF
:101AA000256320680C3050E8002F22F0100240E837
:101AB0000023002BF5D100E004E066632046FFF729
:101AC000FAFEF8BD020606D50A0604D52046BDE892
:101AD000F84000F09DBD4006F3D54806F1D52046FC
:101AE000BDE8F84000F099BCBD23000870B504467D
:101AF000002C04D094F84100002510B106E001202C
:101B000070BD84F84050204600F024F8242084F86A
:101B100041002068C16821F40051C160204600F0F6
:101B2000EDFC2068016921F4904101612068416960
:101B300021F02A0141612068C16841F40051C1606F
:101B40006564202084F8410084F842006563002029
:101B500070BD00002DE9F04F87B00446142102A8A3
:101B6000FEF7ADFCA148DFF880C2143823689F4A15
:101B700002218715002506154FF003094FF0070BCA
:101B80004FF0006A634578D1136843F01003136087
:101B9000126802F010020192026842F00202026032
:101BA000026802F002020192026842F00102026041
:101BB000006800F0010001908020029088460391A7
:101BC0000495CDF81490CDF818B002A98848FFF715
:101BD00095F870100290CDF80C800495CDF8149013
:101BE000CDF818B002A98348FFF788F8DFF80C8217
:101BF0008148C8F80000C8F804A0C8F80850C8F820
:101C00000C50C8F81060C8F81450C8F81850C8F83C
:101C10001C704FF44030C8F82000C8F824504046EB
:101C2000FFF702F808B1FEF7BBFEC4F83C80C8F825
:101C300038407148714F783060373860C7F804A079
:101C40004020B860FD603E617D61BD61FD613D6227
:101C50007D623846FEF7E8FF08B1FEF7A1FEA763F4
:101C6000BC63002205212520FFF7DEF92520FFF7C0
:101C7000CDF907B0BDE8F08FFFE7DFF884C14FF47E
:101C8000003863454AD1594A121F136843F4802330
:101C90001360126802F480220192026842F004028A
:101CA0000260006800F0040001904FF44060029070
:101CB00003910495CDF81490CDF818B002A95148BD
:101CC000FFF71CF8DFF834914F4809F1C009C9F853
:101CD0000000C9F804A0C9F80850C9F80C50C9F8A8
:101CE0001060C9F81450C9F81850C9F81C70C9F828
:101CF0002080C9F824504846FEF796FF08B1FEF749
:101D00004FFEC4F83C90C9F8384000220521272036
:101D1000FFF78AF92720FFF779F9AAE7DFF8ECC087
:101D20006345A6D1136843F020031360126802F0E4
:101D300020020192026842F040020260006800F056
:101D4000400001904FF48440029003910495CDF837
:101D500014900820069002A92D48FEF7CFFF2648D0
:101D6000DFF8B0901838C9F800004FF0206AC9F8C1
:101D700004A0C9F80850C9F80C50C9F81060C9F897
:101D80001450C9F81850C9F81C70C9F82080C9F857
:101D900024504846FEF748FF08B1FEF701FEC4F89C
:101DA0003C90C9F8384014481A4F603060373860AA
:101DB000C7F804A04020B860FD603E617D61BD6150
:101DC000FD613D627D623846FEF72EFF08B1FEF7E9
:101DD000E7FDA763BC63002205214720FFF724F934
:101DE0004720FFF713F944E7001001404438024050
:101DF000000402400000024040640240A440002071
:101E000000480040000802402860024000140140E1
:101E100000180240C441002070472DE9F8430446F1
:101E20000E4615461F4694F84100202802D0022095
:101E3000BDE8F8837EB175B100206064212084F88C
:101E40004100FFF753F88146A584E584A068B0F50A
:101E5000805F02D003E00120EAE7206920B1354627
:101E600000264FF0200815E00025FAE74B46002237
:101E700080212046009700F0FAFB18B184F84180D9
:101E80000320D5E7ADB1216815F8010B4860E08C5F
:101E9000401EE084E08C0028E8D14B46002240211F
:101EA0002046009700F0E3FB50B184F84180032006
:101EB000BEE736F8020B2168C0F308004860E6E789
:101EC00084F841800020B3E77047FEE708B5254855
:101ED000016841F480010160016801F48001009112
:101EE000016841F400110160006800F400100090E6
:101EF000002205210C20FFF797F80C20FFF786F849
:101F0000002205213820FFF78FF83820FFF77EF8F0
:101F1000002205213920FFF787F83920FFF776F8EE
:101F2000002205213A20FFF77FF83A20FFF76EF8EC
:101F3000002205213B20FFF777F83B20FFF766F8EA
:101F4000002205214520FFF76FF84520FFF75EF8D6
:101F5000002205214620FFF767F8BDE8084046202B
:101F6000FFF754B83038024010B59CB01C22164917
:101F700015A8FEF750FA002115A800F0B0FC134C8C
:101F800020601C2210491C310EA8FEF744FA0021E3
:101F90000EA800F0A4FC60601C220B49383107A891
:101FA000FEF739FA002107A800F099FCA0601C2276
:101FB000054954316846FEF72EFA0021684600F0C4
:101FC0008EFCE0601CB010BDB0340008740000202E
:101FD0002DE9F04186B0142101A8FEF770FA002522
:101FE0004248016841F002010160016801F002010C
:101FF0000091016841F040010160016801F0400179
:102000000091016841F001010160016801F00101E6
:102010000091016841F008010160016801F00801C8
:102020000091016841F004010160016801F00401C0
:102030000091016841F080010160016801F08001B8
:102040000091016841F020010160006800F020006B
:102050000090DFF89C804FF4E05400222146404677
:10206000FEF73CFF234F012210213846FEF736FFD2
:10207000214E012211463046FEF730FF0194012423
:1020800002940395049501A94046FEF737FE1020FF
:102090000190029403940225049501A93846FEF7A5
:1020A0002DFE302001904FF404100290039401A9FA
:1020B0001248FEF723FE019402940394049501A9AB
:1020C0003046FEF71BFE002205210A20FEF7ACFF7A
:1020D0000A20FEF79BFF002205211720FEF7A4FF30
:1020E0001720FEF793FF06B0BDE8F08130380240BC
:1020F000001C0240000002400004024000080240B0
:1021000010B50C480A4901604FF4E12141600021FB
:102110008160C16001610C2242618161C161FFF790
:10212000E5FC002803D0BDE81040FEF739BC10BD27
:1021300000100140CC3F002010B50D480B49016054
:102140000C49416000218160C1604FF480620261EE
:102150000C2242618161C161FFF7C8FC002803D0F5
:10216000BDE81040FEF71CBC10BD00000048004058
:1021700014400020A086010010B50C480A490160F7
:102180004FF4E121416000218160C16001610C22B6
:1021900042618161C161FFF7A9FC002803D0BDE85D
:1021A0001040FEF7FDBB10BD001401405C40002054
:1021B000FEE7FEE7012000F085FBFBE7012000F0D1
:1021C00081FBFBE70A4C00224FF480612046FEF7BA
:1021D00085FE0022E1142046FEF780FE0022A114B5
:1021E0002046FEF77BFE012000F06CFBFBE70000C1
:1021F00000080240012000F065FBFBE710B550200D
:1022000080F31188BFF34F8FBFF36F8F01F078F821
:1022100018B104494FF080500860002080F3118805
:1022200010BD000004ED00E030B593B0302107A8E8
:10223000FEF745F9142102A8FEF741F900251F48D1
:10224000016841F080510160006800F08050019009
:102250001B48016841F480410160006800F480403F
:102260000190092007904FF48030089001200C90D5
:1022700002240D9480050E9006200F90A820109047
:1022800011940420129007A8FFF720F808B1FEF778
:1022900087FB0F200290039404954FF4A050059003
:1022A0004FF480500690052102A8FEF7EFFE0028AB
:1022B00001D0FEF775FB13B030BD0000403802407E
:1022C000007000400248016841F4700101607047ED
:1022D00088ED00E00148FFF748BA00008442002082
:1022E0002DE9F04102682A4D2A4E2B4FDFF8ACC091
:1022F0002B4B4FF08048A84209D0404507D0B04250
:1023000005D0B84203D0604501D0984203D122F0F5
:1023100070044A682243A8421BD0404519D0B042FD
:1023200017D0B84215D0604513D0984211D01D4C3B
:10233000A0420ED01C4CA0420BD01C4CA04208D096
:102340001B4CA04205D01B4CA04202D01A4CA0420C
:1023500003D122F44074CA6822434C6922F08002FF
:10236000224302608A68C2620A688262A84201D07F
:10237000984201D109690163012141610169C907DD
:1023800003D0016921F001010161BDE8F081000085
:10239000000001400004004000080040000C004024
:1023A0000004014000400140004401400048014059
:1023B00000180040001C00400020004010B5806B59
:1023C0000021C185C184FFF777FA10BD01680C3187
:1023D00051E8002F22F4907241E80023002BF5D140
:1023E0000168143151E8002F22F0010241E8002376
:1023F000002BF5D1016B012909D101680C3151E89D
:10240000002F22F0100241E80023002BF5D12021FB
:1024100080F8421000210163704710B50168CA6856
:1024200022F04002CA60202180F84110FFF74CFDE5
:10243000002010BD08B590F84210222901D00220DA
:1024400008BD82684FF480539A4201D1016921B1DD
:10245000816A9A421DD052B10BE0816A02685268CB
:10246000C2F308020A80816A891C816209E002695C
:102470007AB10268526802F07F020A70816A491CD0
:102480008162C18D491E0904090CC18505D0002057
:1024900008BD026852680A70F0E70168CA6822F055
:1024A0002002CA600168CA6822F48072CA600168AA
:1024B0004A6922F001024A61202180F8421000217D
:1024C0004163026B012A03D0FFF7A6FC002008BD80
:1024D000016301680C3151E8002F22F0100241E83D
:1024E0000023002BF5D101680A68D20602D50A68DC
:1024F00049680091818DFFF7DEF9E7E72DE9F041AA
:10250000044620680169E26821F4405111430161E9
:10251000A1682069E26901436069104301432068B2
:10252000C26849F20C639A430A43C2602068416959
:10253000A26921F440711143416133492068884206
:1025400002D03249884202D1FEF77AFE01E0FEF75E
:1025500067FEE1690023192764253226B1F5004F93
:1025600028D061688B0F8A00A0FB0701FDF7DCFE15
:102570000146B0FBF5F07A42504301EB800006EBD8
:102580000010B0FBF5F000F0F002B1FBF5F002EB4B
:102590000012B1FBF5F07B42584301EB800006EBE3
:1025A0000010B0FBF5F0216800F00F0010448860C7
:1025B000BDE8F08161684A18A0FB07015B41FDF7A7
:1025C000B3FE0146B0FBF5F00201B1FBF5F06FF090
:1025D0001803584301EB800006EBC000B0FBF5F098
:1025E00000F0F80002EB4002B1FBF5F0584301EBBC
:1025F000800006EBC000B0FBF5F0216800F007009A
:1026000010448860D4E7000000100140001401402D
:1026100090F84110212901D0022070478168B1F55E
:10262000805F01D1016961B1016A4A1C02620268DE
:1026300009785160C18C491E0904090CC1840AD073
:1026400013E0016A02680988C1F308015160016A58
:10265000891C0162EEE70168CA6822F08002CA6044
:102660000068C16841F04001C160002070472DE959
:10267000F84304460D4617469846089E25E0701C10
:1026800023D0FEF733FCA0EB0800B0421BD8D6B134
:102690002068C168490718D5802D16D0402D14D068
:1026A0000168C943090710D40025216809684068FA
:1026B00000902046FFF78AFE0820606484F84050AE
:1026C0000120BDE8F8830320FBE72068006835EAB5
:1026D000000004D00020B842D1D00020F1E7012052
:1026E000F9E7000010B50448FEF74FF9BDE81040C7
:1026F0000148FFF7E3B80000CC3F002082B00B4A4E
:102700001068016841680191C16841F01001C16021
:102710001068416941F0400141611168D06B091DA9
:102720006423034A02B0FEF7F5B80000CC3F002056
:10273000CC42002010B5084C4FF480612046FEF7D3
:10274000C5FBE1142046FEF7C1FBA1142046BDE8FD
:102750001040FEF7BBBB0000001C024010B504484F
:10276000FEF713F9BDE810400148FFF7A7B80000D5
:102770001440002008B50C4A1068016841680091B7
:10278000C16841F01001C1601068416941F0400129
:102790004161122000901168044BD06B091DA3F118
:1027A0001802FDF711FF08BD144000204843002027
:1027B0007047000010B50448FEF7E7F8BDE8104088
:1027C0000148FFF77BB800005C40002082B00B4A54
:1027D0001068016841680191C16841F01001C16051
:1027E0001068416941F0400141611168D06B091DD9
:1027F0006423034A02B0FEF78DB800005C4000205D
:10280000604300207047FEE70907090E002804DB3B
:1028100000F1E02080F80014704700F00F0000F194
:10282000E02080F8141D704710B50068016841F47D
:10283000002101600448FFF7BBFFBDE810401821EC
:102840000148FDF71ABE00003043002010B50068B3
:10285000016821F40021016004480446FFF7A8FF45
:102860002046BDE810401821FDF707BE4843002070
:1028700008B5FEF749FBFFF7D7FCFFF7A9FBFFF709
:1028800025FBFFF759FCFFF73BFCFFF775FCFDF755
:102890007BFEFEF771F8612000904FF47A730122FD
:1028A00069460448FFF7B9FAFFF75EFB00F012F83B
:1028B000FEE70000CC3F002001460020842900D024
:1028C000C81C704710B5002800D1012000F09AFB09
:1028D000002010BD10B500F0BDFB002010BD7FB57D
:1028E00004460D466169B4F90800002910D0A169B9
:1028F00071B1FFF7E1FFD4E90521CDE90121009095
:10290000D4E900102B46226900F0CCFC039010E0C3
:10291000FFF7D2FF03A9CDE90001208A2B4682B23E
:10292000D4E9001000F08CFC012802D0002004B093
:1029300070BD0398FBE700002DE9F04104460F4607
:10294000174EF5683068001D00F092FA38B930680B
:1029500090F82C1001208840316981433161601C5E
:1029600007D137B13168BDE8F041091D0D4800F0CD
:10297000C3BA2C4430684460AC4206D23168B06BB4
:10298000091DBDE8F04100F09FBA3168706B091D68
:1029900000F09AFAB06A844200D2B462BDE8F081D5
:1029A0000C0000206401002070B5044600F0B0FA6D
:1029B0001C4DA868401CA860286810B1686938B12F
:1029C0000CE02C60A868012808D100F0F3F805E0BD
:1029D0002868E16AC06A884200D82C60686A401C96
:1029E0006862E06A01212A698140114329610E4928
:1029F00000EB800001EB8000211D00F07DFA00F06B
:102A0000A7FA686900280CD02868E16AC06A884281
:102A100007D206494FF080500860BFF34F8FBFF3D5
:102A20006F8F70BD0C0000208800002004ED00E0D6
:102A300070B50C4D0C4E11E000F06AFAF068C468F5
:102A4000201D00F015FAA868401EA8606868401EA6
:102A5000686000F07DFA204600F008F868680028F9
:102A6000EAD170BD0C0000205001002010B50446D2
:102A700094F8510000280BD0012811D0022814D05E
:102A8000502080F31188BFF34F8FBFF36F8FFEE7A5
:102A9000206B00F073FA2046BDE8104000F06EBADB
:102AA0002046BDE8104000F069BA10BD4FF47051E7
:102AB0000F48420706D0C01D20F007000C49411AFC
:102AC000C1F570510B4A106000235360014408396E
:102AD00021F00701183A11604B600B600B1A43603C
:102AE00001604068906050604FF000405061704756
:102AF0007801002060000020074E4FF08054074D01
:102B0000FFF796FF30680128FAD92C60BFF34F8F8A
:102B1000BFF36F8FF4E700008800002004ED00E0B1
:102B20002DE9F0478246DDE908580A9C9946521E75
:102B3000206B00EB820020F00706700707D05020C2
:102B400080F31188BFF34F8FBFF36F8FFEE700272D
:102B500061B1002023180A5C83F834200A5C12B1AA
:102B6000401C1028F6D384F8437001E084F83470D8
:102B7000072D00D30625E5626564A764201D00F0DB
:102B8000A0F904F1180000F09CF92461C5F10700D8
:102B9000A0616462E76484F850704A46514630464A
:102BA00000F0F4F82060B8F1000F01D0C8F8004040
:102BB000BDE8F08770B50024124D04EB840005EBEE
:102BC000800000F073F9641C072CF6D30D488C309C
:102BD00000F06CF90B48A03000F068F90948B430F7
:102BE00000F064F90748C83000F060F90548DC30AF
:102BF00000F05CF9034904488C314163143181636E
:102C000070BD0000880000200C00002030B5134982
:102C100000E011460A688242FBD34B685C1884428C
:102C200003D140681844486008460D68446823187A
:102C3000AB420DD1094B183B1B689A4206D0526833
:102C4000224442600A681268026002E0036000E009
:102C50000260814200D0086030BD000060000020AA
:102C60000748416B0968002905D0416BC968C968EC
:102C70004968816270474FF0FF3181627047000000
:102C80000C00002009484068401C07D0502080F309
:102C90001188BFF34F8FBFF36F8FFEE7502080F393
:102CA0001188BFF34F8FBFF36F8FFEE768000020DE
:102CB0002DE9F0410546002600F010FA324F386841
:102CC00008B9FFF7F3FE786905424DD18DB108359B
:102CD00068070ED005F00700C0F10800054468073A
:102CE00007D0502080F31188BFF34F8FBFF36F8F51
:102CF000FEE7CDB37868854236D8234918310846B7
:102D0000046801E0214604466068A84202D22068B7
:102D10000028F7D13868844226D00E68083620682B
:102D200008606068411B10290ED96019420707D05E
:102D3000502080F31188BFF34F8FBFF36F8FFEE7F2
:102D400041606560FFF762FF61687868401A7860EB
:102D5000BA68904200D2B86078690143616000208F
:102D60002060F868401CF86000F032FB700707D064
:102D7000502080F31188BFF34F8FBFF36F8FFEE7B2
:102D80003046BDE8F08100004800002024384FF0B4
:102D90008073036221F00101C161044981614260D5
:102DA0006FF0020140F8201970470000852C0008E0
:102DB00038B504462068016840680090284884427D
:102DC0001DD1E06B0068016821F001010160E06B3A
:102DD00001684A68062A07D10968090302D5416CCF
:102DE000884701E0C16B8847E16B1820096848609B
:102DF000E06B0068016841F00101016038BD1948CD
:102E0000844213D1E06B0068016821F00101016088
:102E10001548FFF78FFC64211348FDF72EFBE06B8C
:102E20000068016841F00101016038BD0F4884422B
:102E3000FBD1E06B0068016821F0010101600A48E4
:102E40009430FFF7DFFC084864219430FDF715FB50
:102E5000E06B0068016841F00101016038BD0000CD
:102E600014400020CC3F0020CC4200205C400020D9
:102E70000169D0E901329A60D0E901235A604A68B9
:102E8000824201D182684A60002202610868401EC5
:102E90000860086870470000034B036003F15400AA
:102EA0000860802010607047783D002000F1080124
:102EB00041604FF0FF328260C1600161002101601A
:102EC000704700210161704730B50C68621C02D068
:102ED00000F1080202E0026904E01A4653681D6826
:102EE000A542FAD953684B6099608A6051600861C5
:102EF0000168491C016030BD42684A6093688B607C
:102F000093685960916008610168491C01607047CD
:102F1000502080F31188BFF34F8FBFF36F8F0A49A2
:102F20004868401C486001280CD10848006810F02F
:102F3000FF0F07D0502080F31188BFF34F8FBFF3EE
:102F40006F8FFEE7704700006800002004ED00E08E
:102F500009494868002806D0401E4860002801D171
:102F600080F311887047502080F31188BFF34F8F92
:102F7000BFF36F8FFEE700006800002070B50028E7
:102F80002AD008380446154D60686969084207D19F
:102F9000502080F31188BFF34F8FBFF36F8FFEE790
:102FA00022683AB1502080F31188BFF34F8FBFF3EE
:102FB0006F8FFEE78843606000F090F86068696892
:102FC000084468602046FFF721FE2869401C2861FC
:102FD000BDE8704000F0FCB970BD00004800002062
:102FE0004FF0E02000210161816105494FF47A72C0
:102FF0000968B1FBF2F1491E416107210161704787
:103000008400002010B502460020002A12D00F488C
:10301000006B38B1502080F31188BFF34F8FBFF39E
:103020006F8FFEE700F05AF800211046FFF784FC8E
:1030300000F0CEF9002807D105494FF08050086014
:10304000BFF34F8FBFF36F8F10BD00000C00002047
:1030500004ED00E010B586B000240594049403AAA2
:1030600004A905A8FFF718FFDDE90410CDE9004128
:103070000290002315A11748039A00F013F916498E
:10308000C86208B1012000E00020012809D0401CDE
:1030900019D1502080F31188BFF34F8FBFF36F8F8A
:1030A000FEE7502080F31188BFF34F8FBFF36F8F7F
:1030B0004FF0FF30886201204861CC6006B0BDE867
:1030C000104000F043B806B010BD000049444C4524
:1030D00000000000F92A00080C0000200248016BE3
:1030E000491C0163704700000C000020154A106B5A
:1030F000002802D00120D06170470020D061106903
:10310000B0FA80F0C0F11F000F4900EB800051F8C9
:10311000203073B101EB800041684968416000F1E3
:103120000803994201D1496841604068C068106055
:103130007047502080F31188BFF34F8FBFF36F8F1C
:10314000FEE700000C000020880000201CB5374876
:103150000168374A914207D1502080F31188BFF3AC
:103160004F8FBFF36F8FFEE700683149491E8842D9
:1031700007D1502080F31188BFF34F8FBFF36F8FBB
:10318000FEE72C4908780190FF200870087800902D
:103190009DF800009DF8002000F0F000904207D05C
:1031A000502080F31188BFF34F8FBFF36F8FFEE77E
:1031B0009DF80000204C00F0500020700720A06017
:1031C00006E0A068401EA0609DF80000400000904E
:1031D0009DF800000006F4D4A068032807D0502012
:1031E00080F31188BFF34F8FBFF36F8FFEE74FF46B
:1031F0004070A060019808700C482030016841F4CC
:1032000070010160016841F070410160FFF7E8FE64
:1032100000206060FDF72CF80848016841F040414B
:103220000160FDF711F800201CBD000000ED00E07A
:1032300071C20F4100E400E06800002034EF00E0BC
:103240002DE9FF5F8146DDE90E788A4616469B46EA
:10325000B000FFF72DFD054628000AD05420FFF7E7
:1032600027FD04460CB1256304E02846FFF786FEDF
:1032700000E000249CB1002084F85100CDE9024018
:10328000CDE900785B46324651464846FFF748FC98
:103290002046FFF789FB012004B0BDE8F09F4FF006
:1032A000FF30F9E7F0B585B00746DDE90A600C9C10
:1032B000002815D0E4B1542503952063022084F83A
:1032C0005100002004ADCDE90240CDE9006538464B
:1032D000FFF726FC2046FFF767FB049805B0F0BD1A
:1032E000502080F31188BFF34F8FBFF36F8FFEE73D
:1032F000502080F31188BFF34F8FBFF36F8FFEE72D
:103300002DE9F0410026304F386B002805D0B86910
:10331000401CB8613046BDE8F081FD686D1CFD6061
:103320009DB9786B006838B1502080F31188BFF3E5
:103330004F8FBFF36F8FFEE7786BB96B7963B8631C
:10334000386A401C3862FFF78BFCB86ADFF87C8073
:1033500085420DD3786B006838B1786BC068C4685B
:103360006068854212D2B86202E04FF0FF30B86266
:103370003868C06A00EB800058F82000012800D9A6
:103380000126F8690028C5D00126C3E7201DFFF7F4
:103390006FFDA06A18B104F11800FFF769FDE06A3B
:1033A00001213A6981401143396100EB800008EB4B
:1033B0008000211DFFF7A0FDE06A3968C96A8842D4
:1033C000C8D30126C6E700000C00002088000020BA
:1033D0002DE9F041002400272D4D286B002807D04F
:1033E000FFF796FD286B401E2863286B40B14AE02A
:1033F000502080F31188BFF34F8FBFF36F8FFEE72C
:10340000A868E8B3DFF88C8001261EE0D8F80C002D
:10341000C46804F11800FFF72BFD201DFFF728FDFD
:10342000E06A2A6906FA00F111432961194900EBA3
:103430008000B43901EB8000211DFFF75DFDE06ADB
:103440002968C96A884200D3EE61D8F800000028D4
:10345000DCD10CB1FFF704FCAC6944B1FFF750FFBD
:1034600000B1EE61641E002CF8D10020A861E8696B
:1034700030B10127084938070860BFF34F8F00E0DB
:1034800001E0BFF36F8FFFF763FD3846BDE8F081C1
:103490000C0000203C01002004ED00E04FF04070E3
:1034A000E1EE100A70470006101600061016000024
:1034B0004C350008F5210008030000000000000062
:1034C0000001000000000000000000005835000866
:1034D000B52100080200000000000000000200000A
:1034E000000000000000000040350008BD21000879
:1034F00000000000000000000001000000000000CB
:103500000000000038350008C52100080100000057
:10351000000000008000000000000000000000002B
:103520000000000000000000010203040607080973
:1035300000000000010203044C65645461736B00D9
:10354000436F6E74726F6C5461736B004D6F6E6974
:10355000746F725461736B00436F6D6D756E697437
:10356000795461736B00000088350008000000206A
:1035700088000000C4010008103600088800002000
:10358000A0490000E0010008010000001000000058
:10359000000000000000000000000000000000002B
:1035A000000000000000000000000000000000001B
:1035B000000000000000000000000000000000000B
:1035C00000000000000000000000000000000000FB
:1035D00000000000000000000000000000000000EB
:1035E00000000000000000000000000000000000DB
:1035F00000000000AAAAAAAA000000000000000023
:103600000000000000000000000000000024F400A2
:040000050800018965
:00000001FF
